{
  "contractName": "FakeUSDT",
  "abi": [
    {
      "inputs": [],
      "stateMutability": "nonpayable",
      "type": "constructor"
    },
    {
      "anonymous": false,
      "inputs": [
        {
          "indexed": true,
          "internalType": "address",
          "name": "owner",
          "type": "address"
        },
        {
          "indexed": true,
          "internalType": "address",
          "name": "spender",
          "type": "address"
        },
        {
          "indexed": false,
          "internalType": "uint256",
          "name": "value",
          "type": "uint256"
        }
      ],
      "name": "Approval",
      "type": "event"
    },
    {
      "anonymous": false,
      "inputs": [
        {
          "indexed": true,
          "internalType": "address",
          "name": "from",
          "type": "address"
        },
        {
          "indexed": true,
          "internalType": "address",
          "name": "to",
          "type": "address"
        },
        {
          "indexed": false,
          "internalType": "uint256",
          "name": "value",
          "type": "uint256"
        }
      ],
      "name": "Transfer",
      "type": "event"
    },
    {
      "inputs": [],
      "name": "decimals",
      "outputs": [
        {
          "internalType": "uint8",
          "name": "",
          "type": "uint8"
        }
      ],
      "stateMutability": "view",
      "type": "function",
      "constant": true
    },
    {
      "inputs": [],
      "name": "name",
      "outputs": [
        {
          "internalType": "string",
          "name": "",
          "type": "string"
        }
      ],
      "stateMutability": "view",
      "type": "function",
      "constant": true
    },
    {
      "inputs": [],
      "name": "symbol",
      "outputs": [
        {
          "internalType": "string",
          "name": "",
          "type": "string"
        }
      ],
      "stateMutability": "view",
      "type": "function",
      "constant": true
    },
    {
      "inputs": [
        {
          "internalType": "address",
          "name": "_owner",
          "type": "address"
        }
      ],
      "name": "balanceOf",
      "outputs": [
        {
          "internalType": "uint256",
          "name": "",
          "type": "uint256"
        }
      ],
      "stateMutability": "view",
      "type": "function",
      "constant": true
    },
    {
      "inputs": [
        {
          "internalType": "address",
          "name": "_to",
          "type": "address"
        },
        {
          "internalType": "uint256",
          "name": "_value",
          "type": "uint256"
        }
      ],
      "name": "transfer",
      "outputs": [
        {
          "internalType": "bool",
          "name": "",
          "type": "bool"
        }
      ],
      "stateMutability": "nonpayable",
      "type": "function"
    },
    {
      "inputs": [
        {
          "internalType": "address",
          "name": "_from",
          "type": "address"
        },
        {
          "internalType": "address",
          "name": "_to",
          "type": "address"
        },
        {
          "internalType": "uint256",
          "name": "_value",
          "type": "uint256"
        }
      ],
      "name": "transferFrom",
      "outputs": [
        {
          "internalType": "bool",
          "name": "",
          "type": "bool"
        }
      ],
      "stateMutability": "nonpayable",
      "type": "function"
    },
    {
      "inputs": [
        {
          "internalType": "address",
          "name": "_spender",
          "type": "address"
        },
        {
          "internalType": "uint256",
          "name": "_value",
          "type": "uint256"
        }
      ],
      "name": "approve",
      "outputs": [
        {
          "internalType": "bool",
          "name": "",
          "type": "bool"
        }
      ],
      "stateMutability": "nonpayable",
      "type": "function"
    },
    {
      "inputs": [
        {
          "internalType": "address",
          "name": "_owner",
          "type": "address"
        },
        {
          "internalType": "address",
          "name": "_spender",
          "type": "address"
        }
      ],
      "name": "allowance",
      "outputs": [
        {
          "internalType": "uint256",
          "name": "",
          "type": "uint256"
        }
      ],
      "stateMutability": "view",
      "type": "function",
      "constant": true
    },
    {
      "inputs": [
        {
          "internalType": "address",
          "name": "_to",
          "type": "address"
        },
        {
          "internalType": "uint256",
          "name": "_value",
          "type": "uint256"
        }
      ],
      "name": "mint",
      "outputs": [
        {
          "internalType": "bool",
          "name": "",
          "type": "bool"
        }
      ],
      "stateMutability": "nonpayable",
      "type": "function"
    }
  ],
  "bytecode": "0x60806040523480156200001157600080fd5b506040518060400160405280600881526020017f46616b6555534454000000000000000000000000000000000000000000000000815250600090805190602001906200005f92919062000225565b506040518060400160405280600581526020017f555344544600000000000000000000000000000000000000000000000000000081525060019080519060200190620000ad92919062000225565b506006600260006101000a81548160ff021916908360ff160217905550620000e033633b9aca00620000e760201b60201c565b5062000473565b60008073ffffffffffffffffffffffffffffffffffffffff168373ffffffffffffffffffffffffffffffffffffffff1614156200015b576040517f08c379a0000000000000000000000000000000000000000000000000000000008152600401620001529062000328565b60405180910390fd5b81600360008573ffffffffffffffffffffffffffffffffffffffff1673ffffffffffffffffffffffffffffffffffffffff1681526020019081526020016000206000828254620001ac919062000378565b925050819055508273ffffffffffffffffffffffffffffffffffffffff16600073ffffffffffffffffffffffffffffffffffffffff167fddf252ad1be2c89b69c2b068fc378daa952ba7f163c4a11628f55a4df523b3ef846040516200021391906200034a565b60405180910390a36001905092915050565b8280546200023390620003df565b90600052602060002090601f016020900481019282620002575760008555620002a3565b82601f106200027257805160ff1916838001178555620002a3565b82800160010185558215620002a3579182015b82811115620002a257825182559160200191906001019062000285565b5b509050620002b29190620002b6565b5090565b5b80821115620002d1576000816000905550600101620002b7565b5090565b6000620002e460198362000367565b91507f496e76616c696420726563697069656e742061646472657373000000000000006000830152602082019050919050565b6200032281620003d5565b82525050565b600060208201905081810360008301526200034381620002d5565b9050919050565b600060208201905062000361600083018462000317565b92915050565b600082825260208201905092915050565b60006200038582620003d5565b91506200039283620003d5565b9250827fffffffffffffffffffffffffffffffffffffffffffffffffffffffffffffffff03821115620003ca57620003c962000415565b5b828201905092915050565b6000819050919050565b60006002820490506001821680620003f857607f821691505b602082108114156200040f576200040e62000444565b5b50919050565b7f4e487b7100000000000000000000000000000000000000000000000000000000600052601160045260246000fd5b7f4e487b7100000000000000000000000000000000000000000000000000000000600052602260045260246000fd5b6110ef80620004836000396000f3fe608060405234801561001057600080fd5b50600436106100935760003560e01c806340c10f191161006657806340c10f191461013457806370a082311461016457806395d89b4114610194578063a9059cbb146101b2578063dd62ed3e146101e257610093565b806306fdde0314610098578063095ea7b3146100b657806323b872dd146100e6578063313ce56714610116575b600080fd5b6100a0610212565b6040516100ad9190610e04565b60405180910390f35b6100d060048036038101906100cb9190610c87565b6102a0565b6040516100dd9190610de9565b60405180910390f35b61010060048036038101906100fb9190610c38565b610392565b60405161010d9190610de9565b60405180910390f35b61011e6106f3565b60405161012b9190610ea1565b60405180910390f35b61014e60048036038101906101499190610c87565b610706565b60405161015b9190610de9565b60405180910390f35b61017e60048036038101906101799190610bd3565b61083d565b60405161018b9190610e86565b60405180910390f35b61019c610886565b6040516101a99190610e04565b60405180910390f35b6101cc60048036038101906101c79190610c87565b610914565b6040516101d99190610de9565b60405180910390f35b6101fc60048036038101906101f79190610bfc565b610b22565b6040516102099190610e86565b60405180910390f35b6000805461021f90610fea565b80601f016020809104026020016040519081016040528092919081815260200182805461024b90610fea565b80156102985780601f1061026d57610100808354040283529160200191610298565b820191906000526020600020905b81548152906001019060200180831161027b57829003601f168201915b505050505081565b600081600460003373ffffffffffffffffffffffffffffffffffffffff1673ffffffffffffffffffffffffffffffffffffffff16815260200190815260200160002060008573ffffffffffffffffffffffffffffffffffffffff1673ffffffffffffffffffffffffffffffffffffffff168152602001908152602001600020819055508273ffffffffffffffffffffffffffffffffffffffff163373ffffffffffffffffffffffffffffffffffffffff167f8c5be1e5ebec7d5bd14f71427d1e84f3dd0314c0f7b2291e5b200ac8c7c3b925846040516103809190610e86565b60405180910390a36001905092915050565b60008073ffffffffffffffffffffffffffffffffffffffff168373ffffffffffffffffffffffffffffffffffffffff161415610403576040517f08c379a00000000000000000000000000000000000000000000000000000000081526004016103fa90610e66565b60405180910390fd5b600360008573ffffffffffffffffffffffffffffffffffffffff1673ffffffffffffffffffffffffffffffffffffffff16815260200190815260200160002054821115610485576040517f08c379a000000000000000000000000000000000000000000000000000000000815260040161047c90610e46565b60405180910390fd5b600460008573ffffffffffffffffffffffffffffffffffffffff1673ffffffffffffffffffffffffffffffffffffffff16815260200190815260200160002060003373ffffffffffffffffffffffffffffffffffffffff1673ffffffffffffffffffffffffffffffffffffffff16815260200190815260200160002054821115610544576040517f08c379a000000000000000000000000000000000000000000000000000000000815260040161053b90610e26565b60405180910390fd5b81600360008673ffffffffffffffffffffffffffffffffffffffff1673ffffffffffffffffffffffffffffffffffffffff16815260200190815260200160002060008282546105939190610f2e565b9250508190555081600360008573ffffffffffffffffffffffffffffffffffffffff1673ffffffffffffffffffffffffffffffffffffffff16815260200190815260200160002060008282546105e99190610ed8565b9250508190555081600460008673ffffffffffffffffffffffffffffffffffffffff1673ffffffffffffffffffffffffffffffffffffffff16815260200190815260200160002060003373ffffffffffffffffffffffffffffffffffffffff1673ffffffffffffffffffffffffffffffffffffffff168152602001908152602001600020600082825461067c9190610f2e565b925050819055508273ffffffffffffffffffffffffffffffffffffffff168473ffffffffffffffffffffffffffffffffffffffff167fddf252ad1be2c89b69c2b068fc378daa952ba7f163c4a11628f55a4df523b3ef846040516106e09190610e86565b60405180910390a3600190509392505050565b600260009054906101000a900460ff1681565b60008073ffffffffffffffffffffffffffffffffffffffff168373ffffffffffffffffffffffffffffffffffffffff161415610777576040517f08c379a000000000000000000000000000000000000000000000000000000000815260040161076e90610e66565b60405180910390fd5b81600360008573ffffffffffffffffffffffffffffffffffffffff1673ffffffffffffffffffffffffffffffffffffffff16815260200190815260200160002060008282546107c69190610ed8565b925050819055508273ffffffffffffffffffffffffffffffffffffffff16600073ffffffffffffffffffffffffffffffffffffffff167fddf252ad1be2c89b69c2b068fc378daa952ba7f163c4a11628f55a4df523b3ef8460405161082b9190610e86565b60405180910390a36001905092915050565b6000600360008373ffffffffffffffffffffffffffffffffffffffff1673ffffffffffffffffffffffffffffffffffffffff168152602001908152602001600020549050919050565b6001805461089390610fea565b80601f01602080910402602001604051908101604052809291908181526020018280546108bf90610fea565b801561090c5780601f106108e15761010080835404028352916020019161090c565b820191906000526020600020905b8154815290600101906020018083116108ef57829003601f168201915b505050505081565b60008073ffffffffffffffffffffffffffffffffffffffff168373ffffffffffffffffffffffffffffffffffffffff161415610985576040517f08c379a000000000000000000000000000000000000000000000000000000000815260040161097c90610e66565b60405180910390fd5b600360003373ffffffffffffffffffffffffffffffffffffffff1673ffffffffffffffffffffffffffffffffffffffff16815260200190815260200160002054821115610a07576040517f08c379a00000000000000000000000000000000000000000000000000000000081526004016109fe90610e46565b60405180910390fd5b81600360003373ffffffffffffffffffffffffffffffffffffffff1673ffffffffffffffffffffffffffffffffffffffff1681526020019081526020016000206000828254610a569190610f2e565b9250508190555081600360008573ffffffffffffffffffffffffffffffffffffffff1673ffffffffffffffffffffffffffffffffffffffff1681526020019081526020016000206000828254610aac9190610ed8565b925050819055508273ffffffffffffffffffffffffffffffffffffffff163373ffffffffffffffffffffffffffffffffffffffff167fddf252ad1be2c89b69c2b068fc378daa952ba7f163c4a11628f55a4df523b3ef84604051610b109190610e86565b60405180910390a36001905092915050565b6000600460008473ffffffffffffffffffffffffffffffffffffffff1673ffffffffffffffffffffffffffffffffffffffff16815260200190815260200160002060008373ffffffffffffffffffffffffffffffffffffffff1673ffffffffffffffffffffffffffffffffffffffff16815260200190815260200160002054905092915050565b600081359050610bb88161108b565b92915050565b600081359050610bcd816110a2565b92915050565b600060208284031215610be557600080fd5b6000610bf384828501610ba9565b91505092915050565b60008060408385031215610c0f57600080fd5b6000610c1d85828601610ba9565b9250506020610c2e85828601610ba9565b9150509250929050565b600080600060608486031215610c4d57600080fd5b6000610c5b86828701610ba9565b9350506020610c6c86828701610ba9565b9250506040610c7d86828701610bbe565b9150509250925092565b60008060408385031215610c9a57600080fd5b6000610ca885828601610ba9565b9250506020610cb985828601610bbe565b9150509250929050565b610ccc81610f74565b82525050565b6000610cdd82610ebc565b610ce78185610ec7565b9350610cf7818560208601610fb7565b610d008161107a565b840191505092915050565b6000610d18601683610ec7565b91507f496e73756666696369656e7420616c6c6f77616e6365000000000000000000006000830152602082019050919050565b6000610d58601483610ec7565b91507f496e73756666696369656e742062616c616e63650000000000000000000000006000830152602082019050919050565b6000610d98601983610ec7565b91507f496e76616c696420726563697069656e742061646472657373000000000000006000830152602082019050919050565b610dd481610fa0565b82525050565b610de381610faa565b82525050565b6000602082019050610dfe6000830184610cc3565b92915050565b60006020820190508181036000830152610e1e8184610cd2565b905092915050565b60006020820190508181036000830152610e3f81610d0b565b9050919050565b60006020820190508181036000830152610e5f81610d4b565b9050919050565b60006020820190508181036000830152610e7f81610d8b565b9050919050565b6000602082019050610e9b6000830184610dcb565b92915050565b6000602082019050610eb66000830184610dda565b92915050565b600081519050919050565b600082825260208201905092915050565b6000610ee382610fa0565b9150610eee83610fa0565b9250827fffffffffffffffffffffffffffffffffffffffffffffffffffffffffffffffff03821115610f2357610f2261101c565b5b828201905092915050565b6000610f3982610fa0565b9150610f4483610fa0565b925082821015610f5757610f5661101c565b5b828203905092915050565b6000610f6d82610f80565b9050919050565b60008115159050919050565b600073ffffffffffffffffffffffffffffffffffffffff82169050919050565b6000819050919050565b600060ff82169050919050565b60005b83811015610fd5578082015181840152602081019050610fba565b83811115610fe4576000848401525b50505050565b6000600282049050600182168061100257607f821691505b602082108114156110165761101561104b565b5b50919050565b7f4e487b7100000000000000000000000000000000000000000000000000000000600052601160045260246000fd5b7f4e487b7100000000000000000000000000000000000000000000000000000000600052602260045260246000fd5b6000601f19601f8301169050919050565b61109481610f62565b811461109f57600080fd5b50565b6110ab81610fa0565b81146110b657600080fd5b5056fea2646970667358221220620f2e9502281f34bc420f2f19554203252fffa911db2443e253fc677cbf5a4e64736f6c63430008000033",
  "immutableReferences": {},
  "source": "// SPDX-License-Identifier: UNLICENSED\npragma solidity ^0.8.0;\n\ncontract FakeUSDT {\n    string public name;\n    string public symbol;\n    uint8 public decimals;\n    mapping(address => uint256) private balances;\n    mapping(address => mapping(address => uint256)) private allowed;\n\n    event Transfer(address indexed from, address indexed to, uint256 value);\n    event Approval(\n        address indexed owner,\n        address indexed spender,\n        uint256 value\n    );\n\n    constructor() {\n        name = \"FakeUSDT\";\n        symbol = \"USDTF\";\n        decimals = 6;\n        mint(msg.sender, 1000000000); // 1,000,000,000 => /10^6 (6 decimals) => 1000 USDTF ($1000)\n    }\n\n    function balanceOf(address _owner) public view returns (uint256) {\n        return balances[_owner];\n    }\n\n    function transfer(address _to, uint256 _value) public returns (bool) {\n        require(_to != address(0), \"Invalid recipient address\");\n        require(_value <= balances[msg.sender], \"Insufficient balance\");\n\n        balances[msg.sender] -= _value;\n        balances[_to] += _value;\n        emit Transfer(msg.sender, _to, _value);\n        return true;\n    }\n\n    function transferFrom(\n        address _from,\n        address _to,\n        uint256 _value\n    ) public returns (bool) {\n        require(_to != address(0), \"Invalid recipient address\");\n        require(_value <= balances[_from], \"Insufficient balance\");\n        require(_value <= allowed[_from][msg.sender], \"Insufficient allowance\");\n\n        balances[_from] -= _value;\n        balances[_to] += _value;\n        allowed[_from][msg.sender] -= _value;\n        emit Transfer(_from, _to, _value);\n        return true;\n    }\n\n    function approve(address _spender, uint256 _value) public returns (bool) {\n        allowed[msg.sender][_spender] = _value;\n        emit Approval(msg.sender, _spender, _value);\n        return true;\n    }\n\n    function allowance(\n        address _owner,\n        address _spender\n    ) public view returns (uint256) {\n        return allowed[_owner][_spender];\n    }\n\n    function mint(address _to, uint256 _value) public returns (bool) {\n        require(_to != address(0), \"Invalid recipient address\");\n        balances[_to] += _value;\n        emit Transfer(address(0), _to, _value);\n        return true;\n    }\n}\n",
  "sourcePath": "/Users/denlie/Desktop/Coding/recurring-crypto-payments/client/src/contracts/FakeUSDT.sol",
  "compiler": {
    "name": "solc",
    "version": "0.8.0+commit.c7dfd78e.Emscripten.clang"
  },
  "schemaVersion": "3.4.8",
  "updatedAt": "2023-07-13T11:36:13.993Z",
  "networkType": "ethereum",
  "devdoc": {
    "kind": "dev",
    "methods": {},
    "version": 1
  },
  "userdoc": {
    "kind": "user",
    "methods": {},
    "version": 1
  }
}