{
  "contractName": "RecurringPayments",
  "abi": [
    {
      "inputs": [],
      "stateMutability": "nonpayable",
      "type": "constructor"
    },
    {
      "inputs": [],
      "name": "test",
      "outputs": [
        {
          "internalType": "uint256",
          "name": "",
          "type": "uint256"
        }
      ],
      "stateMutability": "view",
      "type": "function",
      "constant": true
    },
    {
      "inputs": [],
      "name": "increment",
      "outputs": [
        {
          "internalType": "uint256",
          "name": "",
          "type": "uint256"
        }
      ],
      "stateMutability": "nonpayable",
      "type": "function"
    }
  ],
  "bytecode": "0x608060405234801561001057600080fd5b5060008081905550610180806100276000396000f3fe608060405234801561001057600080fd5b50600436106100365760003560e01c8063d09de08a1461003b578063f8a8fd6d14610059575b600080fd5b610043610077565b60405161005091906100ad565b60405180910390f35b610061610098565b60405161006e91906100ad565b60405180910390f35b600080600081548092919061008b906100d2565b9190505550600054905090565b60005481565b6100a7816100c8565b82525050565b60006020820190506100c2600083018461009e565b92915050565b6000819050919050565b60006100dd826100c8565b91507fffffffffffffffffffffffffffffffffffffffffffffffffffffffffffffffff8214156101105761010f61011b565b5b600182019050919050565b7f4e487b7100000000000000000000000000000000000000000000000000000000600052601160045260246000fdfea26469706673582212201f854e741618f7f246ea396cc9f5baa43953e21a53a7673ca31ad813eec10b3a64736f6c63430008000033",
  "immutableReferences": {},
  "source": "// SPDX-License-Identifier: UNLICENSED\r\npragma solidity ^0.8.0;\r\n\r\ncontract RecurringPayments {\r\n    uint256 public test;\r\n\r\n    constructor() {\r\n        test = 0;\r\n    }\r\n\r\n    function increment() public returns (uint256) {\r\n        test++;\r\n        return test;\r\n    }\r\n}\r\n",
  "sourcePath": "C:\\Users\\Denli\\Desktop\\CodeGod\\Projects\\recurring-crypto-payments\\client\\src\\contracts\\RecurringPayments.sol",
  "compiler": {
    "name": "solc",
    "version": "0.8.0+commit.c7dfd78e.Emscripten.clang"
  },
  "schemaVersion": "3.4.3",
  "updatedAt": "2023-07-13T05:06:02.720Z",
  "networkType": "ethereum",
  "devdoc": {
    "kind": "dev",
    "methods": {},
    "version": 1
  },
  "userdoc": {
    "kind": "user",
    "methods": {},
    "version": 1
  }
}