{
  "contractName": "RecurringPaymentsVendor",
  "abi": [
    {
      "inputs": [
        {
          "internalType": "address",
          "name": "_token",
          "type": "address"
        },
        {
          "internalType": "address",
          "name": "_owner",
          "type": "address"
        }
      ],
      "stateMutability": "nonpayable",
      "type": "constructor"
    },
    {
      "anonymous": false,
      "inputs": [
        {
          "indexed": false,
          "internalType": "address",
          "name": "user",
          "type": "address"
        },
        {
          "indexed": false,
          "internalType": "address",
          "name": "contractAddress",
          "type": "address"
        },
        {
          "indexed": false,
          "internalType": "uint256",
          "name": "amount",
          "type": "uint256"
        }
      ],
      "name": "SuccessfulPayment",
      "type": "event"
    },
    {
      "anonymous": false,
      "inputs": [
        {
          "indexed": false,
          "internalType": "uint256",
          "name": "amount",
          "type": "uint256"
        },
        {
          "indexed": false,
          "internalType": "address",
          "name": "contractAddress",
          "type": "address"
        }
      ],
      "name": "VendorWithdraw",
      "type": "event"
    },
    {
      "inputs": [],
      "name": "balance",
      "outputs": [
        {
          "internalType": "uint256",
          "name": "",
          "type": "uint256"
        }
      ],
      "stateMutability": "view",
      "type": "function"
    },
    {
      "inputs": [],
      "name": "master",
      "outputs": [
        {
          "internalType": "address",
          "name": "",
          "type": "address"
        }
      ],
      "stateMutability": "view",
      "type": "function"
    },
    {
      "inputs": [],
      "name": "owner",
      "outputs": [
        {
          "internalType": "address",
          "name": "",
          "type": "address"
        }
      ],
      "stateMutability": "view",
      "type": "function"
    },
    {
      "inputs": [],
      "name": "token",
      "outputs": [
        {
          "internalType": "address",
          "name": "",
          "type": "address"
        }
      ],
      "stateMutability": "view",
      "type": "function"
    },
    {
      "inputs": [
        {
          "internalType": "address",
          "name": "_user",
          "type": "address"
        },
        {
          "internalType": "uint256",
          "name": "_amount",
          "type": "uint256"
        }
      ],
      "name": "reduceUserBalance",
      "outputs": [],
      "stateMutability": "nonpayable",
      "type": "function"
    },
    {
      "inputs": [],
      "name": "withdraw",
      "outputs": [],
      "stateMutability": "nonpayable",
      "type": "function"
    }
  ],
  "bytecode": "0x608060405234801561001057600080fd5b50604051610c23380380610c2383398181016040528101906100329190610110565b806000806101000a81548173ffffffffffffffffffffffffffffffffffffffff021916908373ffffffffffffffffffffffffffffffffffffffff16021790555081600160006101000a81548173ffffffffffffffffffffffffffffffffffffffff021916908373ffffffffffffffffffffffffffffffffffffffff16021790555033600260006101000a81548173ffffffffffffffffffffffffffffffffffffffff021916908373ffffffffffffffffffffffffffffffffffffffff1602179055505050610195565b60008151905061010a8161017e565b92915050565b6000806040838503121561012357600080fd5b6000610131858286016100fb565b9250506020610142858286016100fb565b9150509250929050565b60006101578261015e565b9050919050565b600073ffffffffffffffffffffffffffffffffffffffff82169050919050565b6101878161014c565b811461019257600080fd5b50565b610a7f806101a46000396000f3fe608060405234801561001057600080fd5b50600436106100625760003560e01c80633ccfd60b146100675780638da5cb5b14610071578063b69ef8a81461008f578063b970cbe1146100ad578063ee97f7f3146100c9578063fc0c546a146100e7575b600080fd5b61006f610105565b005b6100796102c7565b604051610086919061074d565b60405180910390f35b6100976102eb565b6040516100a49190610828565b60405180910390f35b6100c760048036038101906100c2919061060a565b6102f1565b005b6100d161057f565b6040516100de919061074d565b60405180910390f35b6100ef6105a5565b6040516100fc919061074d565b60405180910390f35b60008054906101000a900473ffffffffffffffffffffffffffffffffffffffff1673ffffffffffffffffffffffffffffffffffffffff163373ffffffffffffffffffffffffffffffffffffffff1614610193576040517f08c379a000000000000000000000000000000000000000000000000000000000815260040161018a906107c8565b60405180910390fd5b6000600354116101d8576040517f08c379a00000000000000000000000000000000000000000000000000000000081526004016101cf90610808565b60405180910390fd5b600160009054906101000a900473ffffffffffffffffffffffffffffffffffffffff1673ffffffffffffffffffffffffffffffffffffffff1663a9059cbb336003546040518363ffffffff1660e01b815260040161023792919061079f565b602060405180830381600087803b15801561025157600080fd5b505af1158015610265573d6000803e3d6000fd5b505050506040513d601f19601f820116820180604052508101906102899190610646565b507fdd2bb417331dd66dcbea8ded1c254ad9b992ec0c5ae406967a26f3b7e5cf6c08600354306040516102bd929190610843565b60405180910390a1565b60008054906101000a900473ffffffffffffffffffffffffffffffffffffffff1681565b60035481565b60008054906101000a900473ffffffffffffffffffffffffffffffffffffffff1673ffffffffffffffffffffffffffffffffffffffff163373ffffffffffffffffffffffffffffffffffffffff161461037f576040517f08c379a0000000000000000000000000000000000000000000000000000000008152600401610376906107e8565b60405180910390fd5b600160009054906101000a900473ffffffffffffffffffffffffffffffffffffffff1673ffffffffffffffffffffffffffffffffffffffff166323b872dd8330846040518463ffffffff1660e01b81526004016103de93929190610768565b602060405180830381600087803b1580156103f857600080fd5b505af115801561040c573d6000803e3d6000fd5b505050506040513d601f19601f820116820180604052508101906104309190610646565b50600160009054906101000a900473ffffffffffffffffffffffffffffffffffffffff1673ffffffffffffffffffffffffffffffffffffffff1663a9059cbb600260009054906101000a900473ffffffffffffffffffffffffffffffffffffffff1660648461049f91906108d3565b6040518363ffffffff1660e01b81526004016104bc92919061079f565b602060405180830381600087803b1580156104d657600080fd5b505af11580156104ea573d6000803e3d6000fd5b505050506040513d601f19601f8201168201806040525081019061050e9190610646565b507f52e5669bd414571ff09a9781eebc8aae7e426e15803f885e0e149eca3df1168f82308360405161054293929190610768565b60405180910390a160646063826105599190610904565b61056391906108d3565b60036000828254610574919061087d565b925050819055505050565b600260009054906101000a900473ffffffffffffffffffffffffffffffffffffffff1681565b600160009054906101000a900473ffffffffffffffffffffffffffffffffffffffff1681565b6000813590506105da81610a04565b92915050565b6000815190506105ef81610a1b565b92915050565b60008135905061060481610a32565b92915050565b6000806040838503121561061d57600080fd5b600061062b858286016105cb565b925050602061063c858286016105f5565b9150509250929050565b60006020828403121561065857600080fd5b6000610666848285016105e0565b91505092915050565b6106788161095e565b82525050565b600061068b60138361086c565b91507f4f6e6c79206f776e65722063616e2063616c6c000000000000000000000000006000830152602082019050919050565b60006106cb601d8361086c565b91507f4f6e6c79206d617374657220636f6e74726163742063616e2063616c6c0000006000830152602082019050919050565b600061070b601c8361086c565b91507f43616e206f6e6c7920776974682069662062616c616e6365203e2030000000006000830152602082019050919050565b6107478161099c565b82525050565b6000602082019050610762600083018461066f565b92915050565b600060608201905061077d600083018661066f565b61078a602083018561066f565b610797604083018461073e565b949350505050565b60006040820190506107b4600083018561066f565b6107c1602083018461073e565b9392505050565b600060208201905081810360008301526107e18161067e565b9050919050565b60006020820190508181036000830152610801816106be565b9050919050565b60006020820190508181036000830152610821816106fe565b9050919050565b600060208201905061083d600083018461073e565b92915050565b6000604082019050610858600083018561073e565b610865602083018461066f565b9392505050565b600082825260208201905092915050565b60006108888261099c565b91506108938361099c565b9250827fffffffffffffffffffffffffffffffffffffffffffffffffffffffffffffffff038211156108c8576108c76109a6565b5b828201905092915050565b60006108de8261099c565b91506108e98361099c565b9250826108f9576108f86109d5565b5b828204905092915050565b600061090f8261099c565b915061091a8361099c565b9250817fffffffffffffffffffffffffffffffffffffffffffffffffffffffffffffffff0483118215151615610953576109526109a6565b5b828202905092915050565b60006109698261097c565b9050919050565b60008115159050919050565b600073ffffffffffffffffffffffffffffffffffffffff82169050919050565b6000819050919050565b7f4e487b7100000000000000000000000000000000000000000000000000000000600052601160045260246000fd5b7f4e487b7100000000000000000000000000000000000000000000000000000000600052601260045260246000fd5b610a0d8161095e565b8114610a1857600080fd5b50565b610a2481610970565b8114610a2f57600080fd5b50565b610a3b8161099c565b8114610a4657600080fd5b5056fea2646970667358221220679de1e60e1cfb0c3f0ace01ed05cfdb7fd02c893138cb31664ef02885fe764b64736f6c63430008000033",
  "immutableReferences": {},
  "source": "// SPDX-License-Identifier: UNLICENSED\npragma solidity ^0.8.0;\nimport \"./IERC20.sol\";\n\ncontract RecurringPaymentsVendor {\n    address public owner;\n    address public token;\n    address public master;\n    uint256 public balance;\n\n    event SuccessfulPayment(\n        address user,\n        address contractAddress,\n        uint256 amount\n    );\n    event VendorWithdraw(uint256 amount, address contractAddress);\n\n    constructor(address _token, address _owner) {\n        owner = _owner; //\n        token = _token; // this is the token that will be used for payments\n        master = msg.sender;\n    }\n\n    function reduceUserBalance(\n        address _user,\n        uint256 _amount\n    ) public onlyMaster {\n        IERC20(token).transferFrom(_user, address(this), _amount);\n        // 1% of payment transferred to master contract\n        IERC20(token).transfer(master, _amount / 100);\n        emit SuccessfulPayment(_user, address(this), _amount);\n        balance += (_amount * 99) / 100;\n    }\n\n    function withdraw() public onlyOwner {\n        require(balance > 0, \"Can only with if balance > 0\");\n        IERC20(token).transfer(msg.sender, balance);\n        emit VendorWithdraw(balance, address(this));\n    }\n\n    modifier onlyOwner() {\n        require(msg.sender == owner, \"Only owner can call\");\n        _;\n    }\n    modifier onlyMaster() {\n        require(msg.sender == owner, \"Only master contract can call\");\n        _;\n    }\n}\n",
  "sourcePath": "/Users/denlie/Desktop/Coding/recurring-crypto-payments/client/src/contracts/RecurringPaymentsVendor.sol",
  "compiler": {
    "name": "solc",
    "version": "0.8.0+commit.c7dfd78e.Emscripten.clang"
  },
  "schemaVersion": "3.4.8",
  "updatedAt": "2023-07-13T11:36:13.988Z",
  "networkType": "ethereum",
  "devdoc": {
    "kind": "dev",
    "methods": {},
    "version": 1
  },
  "userdoc": {
    "kind": "user",
    "methods": {},
    "version": 1
  }
}