{
  "contractName": "RecurringPaymentsVendor",
  "abi": [
    {
      "inputs": [
        {
          "internalType": "address",
          "name": "_token",
          "type": "address"
        },
        {
          "internalType": "address",
          "name": "_owner",
          "type": "address"
        }
      ],
      "stateMutability": "nonpayable",
      "type": "constructor"
    },
    {
      "anonymous": false,
      "inputs": [
        {
          "indexed": false,
          "internalType": "address",
          "name": "user",
          "type": "address"
        },
        {
          "indexed": false,
          "internalType": "address",
          "name": "contractAddress",
          "type": "address"
        },
        {
          "indexed": false,
          "internalType": "uint256",
          "name": "amount",
          "type": "uint256"
        }
      ],
      "name": "SuccessfulPayment",
      "type": "event"
    },
    {
      "anonymous": false,
      "inputs": [
        {
          "indexed": false,
          "internalType": "uint256",
          "name": "amount",
          "type": "uint256"
        },
        {
          "indexed": false,
          "internalType": "address",
          "name": "contractAddress",
          "type": "address"
        }
      ],
      "name": "VendorWithdraw",
      "type": "event"
    },
    {
      "inputs": [],
      "name": "balance",
      "outputs": [
        {
          "internalType": "uint256",
          "name": "",
          "type": "uint256"
        }
      ],
      "stateMutability": "view",
      "type": "function"
    },
    {
      "inputs": [],
      "name": "master",
      "outputs": [
        {
          "internalType": "address",
          "name": "",
          "type": "address"
        }
      ],
      "stateMutability": "view",
      "type": "function"
    },
    {
      "inputs": [],
      "name": "owner",
      "outputs": [
        {
          "internalType": "address",
          "name": "",
          "type": "address"
        }
      ],
      "stateMutability": "view",
      "type": "function"
    },
    {
      "inputs": [],
      "name": "token",
      "outputs": [
        {
          "internalType": "address",
          "name": "",
          "type": "address"
        }
      ],
      "stateMutability": "view",
      "type": "function"
    },
    {
      "inputs": [
        {
          "internalType": "address",
          "name": "_user",
          "type": "address"
        },
        {
          "internalType": "uint256",
          "name": "_amount",
          "type": "uint256"
        }
      ],
      "name": "reduceUserBalance",
      "outputs": [],
      "stateMutability": "nonpayable",
      "type": "function"
    },
    {
      "inputs": [],
      "name": "withdraw",
      "outputs": [],
      "stateMutability": "nonpayable",
      "type": "function"
    }
  ],
  "bytecode": "0x608060405234801561001057600080fd5b50604051610c2d380380610c2d83398181016040528101906100329190610110565b806000806101000a81548173ffffffffffffffffffffffffffffffffffffffff021916908373ffffffffffffffffffffffffffffffffffffffff16021790555081600160006101000a81548173ffffffffffffffffffffffffffffffffffffffff021916908373ffffffffffffffffffffffffffffffffffffffff16021790555033600260006101000a81548173ffffffffffffffffffffffffffffffffffffffff021916908373ffffffffffffffffffffffffffffffffffffffff1602179055505050610195565b60008151905061010a8161017e565b92915050565b6000806040838503121561012357600080fd5b6000610131858286016100fb565b9250506020610142858286016100fb565b9150509250929050565b60006101578261015e565b9050919050565b600073ffffffffffffffffffffffffffffffffffffffff82169050919050565b6101878161014c565b811461019257600080fd5b50565b610a89806101a46000396000f3fe608060405234801561001057600080fd5b50600436106100625760003560e01c80633ccfd60b146100675780638da5cb5b14610071578063b69ef8a81461008f578063b970cbe1146100ad578063ee97f7f3146100c9578063fc0c546a146100e7575b600080fd5b61006f610105565b005b6100796102cf565b6040516100869190610757565b60405180910390f35b6100976102f3565b6040516100a49190610832565b60405180910390f35b6100c760048036038101906100c29190610614565b6102f9565b005b6100d1610589565b6040516100de9190610757565b60405180910390f35b6100ef6105af565b6040516100fc9190610757565b60405180910390f35b60008054906101000a900473ffffffffffffffffffffffffffffffffffffffff1673ffffffffffffffffffffffffffffffffffffffff163373ffffffffffffffffffffffffffffffffffffffff1614610193576040517f08c379a000000000000000000000000000000000000000000000000000000000815260040161018a906107d2565b60405180910390fd5b6000600354116101d8576040517f08c379a00000000000000000000000000000000000000000000000000000000081526004016101cf90610812565b60405180910390fd5b600160009054906101000a900473ffffffffffffffffffffffffffffffffffffffff1673ffffffffffffffffffffffffffffffffffffffff1663a9059cbb336003546040518363ffffffff1660e01b81526004016102379291906107a9565b602060405180830381600087803b15801561025157600080fd5b505af1158015610265573d6000803e3d6000fd5b505050506040513d601f19601f820116820180604052508101906102899190610650565b507fdd2bb417331dd66dcbea8ded1c254ad9b992ec0c5ae406967a26f3b7e5cf6c08600354306040516102bd92919061084d565b60405180910390a16000600381905550565b60008054906101000a900473ffffffffffffffffffffffffffffffffffffffff1681565b60035481565b600260009054906101000a900473ffffffffffffffffffffffffffffffffffffffff1673ffffffffffffffffffffffffffffffffffffffff163373ffffffffffffffffffffffffffffffffffffffff1614610389576040517f08c379a0000000000000000000000000000000000000000000000000000000008152600401610380906107f2565b60405180910390fd5b600160009054906101000a900473ffffffffffffffffffffffffffffffffffffffff1673ffffffffffffffffffffffffffffffffffffffff166323b872dd8330846040518463ffffffff1660e01b81526004016103e893929190610772565b602060405180830381600087803b15801561040257600080fd5b505af1158015610416573d6000803e3d6000fd5b505050506040513d601f19601f8201168201806040525081019061043a9190610650565b50600160009054906101000a900473ffffffffffffffffffffffffffffffffffffffff1673ffffffffffffffffffffffffffffffffffffffff1663a9059cbb600260009054906101000a900473ffffffffffffffffffffffffffffffffffffffff166064846104a991906108dd565b6040518363ffffffff1660e01b81526004016104c69291906107a9565b602060405180830381600087803b1580156104e057600080fd5b505af11580156104f4573d6000803e3d6000fd5b505050506040513d601f19601f820116820180604052508101906105189190610650565b507f52e5669bd414571ff09a9781eebc8aae7e426e15803f885e0e149eca3df1168f82308360405161054c93929190610772565b60405180910390a16064606382610563919061090e565b61056d91906108dd565b6003600082825461057e9190610887565b925050819055505050565b600260009054906101000a900473ffffffffffffffffffffffffffffffffffffffff1681565b600160009054906101000a900473ffffffffffffffffffffffffffffffffffffffff1681565b6000813590506105e481610a0e565b92915050565b6000815190506105f981610a25565b92915050565b60008135905061060e81610a3c565b92915050565b6000806040838503121561062757600080fd5b6000610635858286016105d5565b9250506020610646858286016105ff565b9150509250929050565b60006020828403121561066257600080fd5b6000610670848285016105ea565b91505092915050565b61068281610968565b82525050565b6000610695601383610876565b91507f4f6e6c79206f776e65722063616e2063616c6c000000000000000000000000006000830152602082019050919050565b60006106d5601d83610876565b91507f4f6e6c79206d617374657220636f6e74726163742063616e2063616c6c0000006000830152602082019050919050565b6000610715601c83610876565b91507f43616e206f6e6c7920776974682069662062616c616e6365203e2030000000006000830152602082019050919050565b610751816109a6565b82525050565b600060208201905061076c6000830184610679565b92915050565b60006060820190506107876000830186610679565b6107946020830185610679565b6107a16040830184610748565b949350505050565b60006040820190506107be6000830185610679565b6107cb6020830184610748565b9392505050565b600060208201905081810360008301526107eb81610688565b9050919050565b6000602082019050818103600083015261080b816106c8565b9050919050565b6000602082019050818103600083015261082b81610708565b9050919050565b60006020820190506108476000830184610748565b92915050565b60006040820190506108626000830185610748565b61086f6020830184610679565b9392505050565b600082825260208201905092915050565b6000610892826109a6565b915061089d836109a6565b9250827fffffffffffffffffffffffffffffffffffffffffffffffffffffffffffffffff038211156108d2576108d16109b0565b5b828201905092915050565b60006108e8826109a6565b91506108f3836109a6565b925082610903576109026109df565b5b828204905092915050565b6000610919826109a6565b9150610924836109a6565b9250817fffffffffffffffffffffffffffffffffffffffffffffffffffffffffffffffff048311821515161561095d5761095c6109b0565b5b828202905092915050565b600061097382610986565b9050919050565b60008115159050919050565b600073ffffffffffffffffffffffffffffffffffffffff82169050919050565b6000819050919050565b7f4e487b7100000000000000000000000000000000000000000000000000000000600052601160045260246000fd5b7f4e487b7100000000000000000000000000000000000000000000000000000000600052601260045260246000fd5b610a1781610968565b8114610a2257600080fd5b50565b610a2e8161097a565b8114610a3957600080fd5b50565b610a45816109a6565b8114610a5057600080fd5b5056fea26469706673582212209021c53bfb8188ea15c88586cba36fbd7b50512cffb36a1f894826016f950a0964736f6c63430008000033",
  "immutableReferences": {},
  "source": "// SPDX-License-Identifier: UNLICENSED\npragma solidity ^0.8.0;\nimport \"./IERC20.sol\";\n\ncontract RecurringPaymentsVendor {\n    address public owner;\n    address public token;\n    address public master;\n    uint256 public balance;\n\n    event SuccessfulPayment(\n        address user,\n        address contractAddress,\n        uint256 amount\n    );\n    event VendorWithdraw(uint256 amount, address contractAddress);\n\n    constructor(address _token, address _owner) {\n        owner = _owner; // the vendor\n        token = _token; // this is the token that will be used for payments\n        master = msg.sender;\n    }\n\n    function reduceUserBalance(\n        address _user,\n        uint256 _amount\n    ) public onlyMaster {\n        IERC20(token).transferFrom(_user, address(this), _amount);\n        // 1% of payment transferred to master contract\n        IERC20(token).transfer(master, _amount / 100);\n        emit SuccessfulPayment(_user, address(this), _amount);\n        balance += (_amount * 99) / 100;\n    }\n\n    function withdraw() public onlyOwner {\n        require(balance > 0, \"Can only with if balance > 0\");\n        IERC20(token).transfer(msg.sender, balance);\n        emit VendorWithdraw(balance, address(this));\n        balance = 0;\n    }\n\n    modifier onlyOwner() {\n        require(msg.sender == owner, \"Only owner can call\");\n        _;\n    }\n    modifier onlyMaster() {\n        require(msg.sender == master, \"Only master contract can call\");\n        _;\n    }\n}\n",
  "sourcePath": "/Users/denlie/Desktop/Coding/recurring-crypto-payments/client/src/contracts/RecurringPaymentsVendor.sol",
  "compiler": {
    "name": "solc",
    "version": "0.8.0+commit.c7dfd78e.Emscripten.clang"
  },
  "schemaVersion": "3.4.8",
  "updatedAt": "2023-07-28T10:12:16.489Z",
  "devdoc": {
    "kind": "dev",
    "methods": {},
    "version": 1
  },
  "userdoc": {
    "kind": "user",
    "methods": {},
    "version": 1
  }
}